{
  "contractName": "PPR",
  "abi": [
    {
      "constant": true,
      "inputs": [],
      "name": "PatientID",
      "outputs": [
        {
          "name": "",
          "type": "string"
        }
      ],
      "payable": false,
      "stateMutability": "view",
      "type": "function"
    },
    {
      "constant": true,
      "inputs": [],
      "name": "ProviderID",
      "outputs": [
        {
          "name": "",
          "type": "string"
        }
      ],
      "payable": false,
      "stateMutability": "view",
      "type": "function"
    },
    {
      "inputs": [
        {
          "name": "_PatientID",
          "type": "string"
        },
        {
          "name": "_ProviderID",
          "type": "string"
        }
      ],
      "payable": false,
      "stateMutability": "nonpayable",
      "type": "constructor"
    },
    {
      "constant": true,
      "inputs": [
        {
          "name": "_index",
          "type": "uint256"
        }
      ],
      "name": "getPermission",
      "outputs": [
        {
          "name": "",
          "type": "int256"
        }
      ],
      "payable": false,
      "stateMutability": "view",
      "type": "function"
    },
    {
      "constant": true,
      "inputs": [
        {
          "name": "_index",
          "type": "uint256"
        }
      ],
      "name": "getDataHash",
      "outputs": [
        {
          "name": "",
          "type": "uint256"
        }
      ],
      "payable": false,
      "stateMutability": "view",
      "type": "function"
    },
    {
      "constant": false,
      "inputs": [
        {
          "name": "_index",
          "type": "uint256"
        },
        {
          "name": "newPermission",
          "type": "int256"
        }
      ],
      "name": "updatePermission",
      "outputs": [],
      "payable": false,
      "stateMutability": "nonpayable",
      "type": "function"
    },
    {
      "constant": false,
      "inputs": [
        {
          "name": "_index",
          "type": "uint256"
        },
        {
          "name": "newHash",
          "type": "uint256"
        }
      ],
      "name": "updateDataHash",
      "outputs": [],
      "payable": false,
      "stateMutability": "nonpayable",
      "type": "function"
    }
  ],
  "bytecode": "0x608060405234801561001057600080fd5b5060405161058d38038061058d83398101806040528101908080518201929190602001805182019291905050508160009080519060200190610053929190610072565b50806001908051906020019061006a929190610072565b505050610117565b828054600181600116156101000203166002900490600052602060002090601f016020900481019282601f106100b357805160ff19168380011785556100e1565b828001600101855582156100e1579182015b828111156100e05782518255916020019190600101906100c5565b5b5090506100ee91906100f2565b5090565b61011491905b808211156101105760008160009055506001016100f8565b5090565b90565b610467806101266000396000f300608060405260043610610078576000357c0100000000000000000000000000000000000000000000000000000000900463ffffffff1680631ee41a721461007d5780632339a7be146100b457806371c62d3c14610144578063a595d8fc1461017b578063c0918e76146101bc578063ffb5e2761461024c575b600080fd5b34801561008957600080fd5b506100b2600480360381019080803590602001909291908035906020019092919050505061028d565b005b3480156100c057600080fd5b506100c96102a9565b6040518080602001828103825283818151815260200191508051906020019080838360005b838110156101095780820151818401526020810190506100ee565b50505050905090810190601f1680156101365780820380516001836020036101000a031916815260200191505b509250505060405180910390f35b34801561015057600080fd5b506101796004803603810190808035906020019092919080359060200190929190505050610347565b005b34801561018757600080fd5b506101a660048036038101908080359060200190929190505050610363565b6040518082815260200191505060405180910390f35b3480156101c857600080fd5b506101d1610380565b6040518080602001828103825283818151815260200191508051906020019080838360005b838110156102115780820151818401526020810190506101f6565b50505050905090810190601f16801561023e5780820380516001836020036101000a031916815260200191505b509250505060405180910390f35b34801561025857600080fd5b506102776004803603810190808035906020019092919050505061041e565b6040518082815260200191505060405180910390f35b8060026000848152602001908152602001600020819055505050565b60008054600181600116156101000203166002900480601f01602080910402602001604051908101604052809291908181526020018280546001816001161561010002031660029004801561033f5780601f106103145761010080835404028352916020019161033f565b820191906000526020600020905b81548152906001019060200180831161032257829003601f168201915b505050505081565b8060036000848152602001908152602001600020819055505050565b600060036000838152602001908152602001600020549050919050565b60018054600181600116156101000203166002900480601f0160208091040260200160405190810160405280929190818152602001828054600181600116156101000203166002900480156104165780601f106103eb57610100808354040283529160200191610416565b820191906000526020600020905b8154815290600101906020018083116103f957829003601f168201915b505050505081565b6000600260008381526020019081526020016000205490509190505600a165627a7a723058207e8453c4d860bf266feeef5fb3560c39b4f7cef1c993a5cf26fe4f040c6ad3c50029",
  "source": "pragma solidity ^ 0.4.18;\r\n\r\n\r\ncontract PPR{\r\n    string public PatientID;\r\n    string public ProviderID;\r\n    \r\n    struct AccessInfo{\r\n        string hostname;//Dummy for now\r\n        string port;//Dummy for now\r\n    }\r\n    \r\n    mapping (uint => int) Permission;/*Input the index of piece of data offchain,\r\n    return its Permission*/\r\n    \r\n    mapping (uint => uint) DataHash;/*Input the index of the piece of data offchain, return the hash for the offchain piece of data.*/\r\n    \r\n     function PPR(string _PatientID, string _ProviderID)public{\r\n        PatientID=_PatientID;\r\n        ProviderID=_ProviderID;\r\n    }\r\n\r\n    function getPermission(uint _index)view public returns(int){\r\n        return Permission[_index];\r\n    }\r\n    \r\n    function getDataHash(uint _index)view public returns(uint){\r\n        return DataHash[_index];\r\n    }\r\n    \r\n    function updatePermission(uint _index,int newPermission)public{\r\n        Permission[_index]=newPermission;\r\n    }\r\n    \r\n    /*I am not totally understand here, who is responsible for calcuating and updating the data hash?*/\r\n    function updateDataHash(uint _index,uint newHash)public{\r\n        DataHash[_index]=newHash;\r\n    }\r\n}\r\n",
  "sourcePath": "C:\\Users\\tzhangam\\Desktop\\Demo\\contracts\\PPR.sol",
  "compiler": {
    "name": "solc",
    "version": "0.4.23+commit.124ca40d.Emscripten.clang"
  },
  "schemaVersion": "2.0.0",
  "updatedAt": "2018-04-26T02:35:49.005Z"
}