{
  "contractName": "PPR",
  "abi": [
    {
      "constant": true,
      "inputs": [],
      "name": "PatientID",
      "outputs": [
        {
          "name": "",
          "type": "string"
        }
      ],
      "payable": false,
      "stateMutability": "view",
      "type": "function"
    },
    {
      "constant": true,
      "inputs": [],
      "name": "ProviderID",
      "outputs": [
        {
          "name": "",
          "type": "string"
        }
      ],
      "payable": false,
      "stateMutability": "view",
      "type": "function"
    },
    {
      "inputs": [
        {
          "name": "_PatientID",
          "type": "string"
        },
        {
          "name": "_ProviderID",
          "type": "string"
        }
      ],
      "payable": false,
      "stateMutability": "nonpayable",
      "type": "constructor"
    },
    {
      "constant": true,
      "inputs": [
        {
          "name": "_index",
          "type": "uint256"
        }
      ],
      "name": "getPermission",
      "outputs": [
        {
          "name": "",
          "type": "int256"
        }
      ],
      "payable": false,
      "stateMutability": "view",
      "type": "function"
    },
    {
      "constant": true,
      "inputs": [
        {
          "name": "_index",
          "type": "uint256"
        }
      ],
      "name": "getDataHash",
      "outputs": [
        {
          "name": "",
          "type": "uint256"
        }
      ],
      "payable": false,
      "stateMutability": "view",
      "type": "function"
    },
    {
      "constant": false,
      "inputs": [
        {
          "name": "_index",
          "type": "uint256"
        },
        {
          "name": "newPermission",
          "type": "int256"
        }
      ],
      "name": "updatePermission",
      "outputs": [],
      "payable": false,
      "stateMutability": "nonpayable",
      "type": "function"
    },
    {
      "constant": false,
      "inputs": [
        {
          "name": "_index",
          "type": "uint256"
        },
        {
          "name": "newHash",
          "type": "uint256"
        }
      ],
      "name": "updateDataHash",
      "outputs": [],
      "payable": false,
      "stateMutability": "nonpayable",
      "type": "function"
    }
  ],
  "bytecode": "0x6060604052341561000f57600080fd5b60405161055638038061055683398101604052808051820191906020018051820191905050816000908051906020019061004a929190610069565b508060019080519060200190610061929190610069565b50505061010e565b828054600181600116156101000203166002900490600052602060002090601f016020900481019282601f106100aa57805160ff19168380011785556100d8565b828001600101855582156100d8579182015b828111156100d75782518255916020019190600101906100bc565b5b5090506100e591906100e9565b5090565b61010b91905b808211156101075760008160009055506001016100ef565b5090565b90565b6104398061011d6000396000f300606060405260043610610078576000357c0100000000000000000000000000000000000000000000000000000000900463ffffffff1680631ee41a721461007d5780632339a7be146100a957806371c62d3c14610137578063a595d8fc14610163578063c0918e761461019a578063ffb5e27614610228575b600080fd5b341561008857600080fd5b6100a7600480803590602001909190803590602001909190505061025f565b005b34156100b457600080fd5b6100bc61027b565b6040518080602001828103825283818151815260200191508051906020019080838360005b838110156100fc5780820151818401526020810190506100e1565b50505050905090810190601f1680156101295780820380516001836020036101000a031916815260200191505b509250505060405180910390f35b341561014257600080fd5b6101616004808035906020019091908035906020019091905050610319565b005b341561016e57600080fd5b6101846004808035906020019091905050610335565b6040518082815260200191505060405180910390f35b34156101a557600080fd5b6101ad610352565b6040518080602001828103825283818151815260200191508051906020019080838360005b838110156101ed5780820151818401526020810190506101d2565b50505050905090810190601f16801561021a5780820380516001836020036101000a031916815260200191505b509250505060405180910390f35b341561023357600080fd5b61024960048080359060200190919050506103f0565b6040518082815260200191505060405180910390f35b8060026000848152602001908152602001600020819055505050565b60008054600181600116156101000203166002900480601f0160208091040260200160405190810160405280929190818152602001828054600181600116156101000203166002900480156103115780601f106102e657610100808354040283529160200191610311565b820191906000526020600020905b8154815290600101906020018083116102f457829003601f168201915b505050505081565b8060036000848152602001908152602001600020819055505050565b600060036000838152602001908152602001600020549050919050565b60018054600181600116156101000203166002900480601f0160208091040260200160405190810160405280929190818152602001828054600181600116156101000203166002900480156103e85780601f106103bd576101008083540402835291602001916103e8565b820191906000526020600020905b8154815290600101906020018083116103cb57829003601f168201915b505050505081565b6000600260008381526020019081526020016000205490509190505600a165627a7a723058202b8bdb8f451f0b412677b9d59678b3e35a1927b0c3f31799deb77600888dfc860029",
  "source": "pragma solidity ^ 0.4.18;\r\n\r\n\r\ncontract PPR{\r\n    string public PatientID;\r\n    string public ProviderID;\r\n    \r\n    struct AccessInfo{\r\n        string hostname;//Dummy for now\r\n        string port;//Dummy for now\r\n    }\r\n    \r\n    mapping (uint => int) Permission;/*Input the index of piece of data offchain,\r\n    return its Permission*/\r\n    \r\n    mapping (uint => uint) DataHash;/*Input the index of the piece of data offchain, return the hash for the offchain piece of data.*/\r\n    \r\n     function PPR(string _PatientID, string _ProviderID)public{\r\n        PatientID=_PatientID;\r\n        ProviderID=_ProviderID;\r\n    }\r\n\r\n    function getPermission(uint _index)view public returns(int){\r\n        return Permission[_index];\r\n    }\r\n    \r\n    function getDataHash(uint _index)view public returns(uint){\r\n        return DataHash[_index];\r\n    }\r\n    \r\n    function updatePermission(uint _index,int newPermission)public{\r\n        Permission[_index]=newPermission;\r\n    }\r\n    \r\n    /*I am not totally understand here, who is responsible for calcuating and updating the data hash?*/\r\n    function updateDataHash(uint _index,uint newHash)public{\r\n        DataHash[_index]=newHash;\r\n    }\r\n}\r\n",
  "sourcePath": "C:\\Users\\tzhangam\\Desktop\\Demo\\contracts\\PPR.sol",
  "compiler": {
    "name": "solc",
    "version": "0.4.21+commit.dfe3193c.Emscripten.clang"
  },
  "schemaVersion": "2.0.0",
  "updatedAt": "2018-04-20T15:52:18.447Z"
}