{
  "contractName": "RC",
  "abi": [
    {
      "constant": false,
      "inputs": [
        {
          "name": "_RegistrarID",
          "type": "string"
        },
        {
          "name": "_EthAddr",
          "type": "address"
        }
      ],
      "name": "registerEthAddr",
      "outputs": [
        {
          "name": "",
          "type": "int256"
        }
      ],
      "payable": false,
      "stateMutability": "nonpayable",
      "type": "function"
    },
    {
      "constant": false,
      "inputs": [
        {
          "name": "_RegistrarID",
          "type": "string"
        },
        {
          "name": "_SCAddr",
          "type": "address"
        }
      ],
      "name": "registerSCAddr",
      "outputs": [
        {
          "name": "",
          "type": "int256"
        }
      ],
      "payable": false,
      "stateMutability": "nonpayable",
      "type": "function"
    },
    {
      "constant": true,
      "inputs": [
        {
          "name": "_RegistrarID",
          "type": "string"
        }
      ],
      "name": "getEthAddr",
      "outputs": [
        {
          "name": "",
          "type": "address"
        }
      ],
      "payable": false,
      "stateMutability": "view",
      "type": "function"
    },
    {
      "constant": true,
      "inputs": [
        {
          "name": "_RegistrarID",
          "type": "string"
        }
      ],
      "name": "getSCAddr",
      "outputs": [
        {
          "name": "",
          "type": "address"
        }
      ],
      "payable": false,
      "stateMutability": "view",
      "type": "function"
    }
  ],
  "bytecode": "0x608060405234801561001057600080fd5b5061075a806100206000396000f300608060405260043610610062576000357c0100000000000000000000000000000000000000000000000000000000900463ffffffff168063029f278114610067578063d017cee814610104578063ecf50e36146101ad578063f0434e7b1461024a575b600080fd5b34801561007357600080fd5b506100ee600480360381019080803590602001908201803590602001908080601f0160208091040260200160405190810160405280939291908181526020018383808284378201915050505050509192919290803573ffffffffffffffffffffffffffffffffffffffff1690602001909291905050506102f3565b6040518082815260200191505060405180910390f35b34801561011057600080fd5b5061016b600480360381019080803590602001908201803590602001908080601f016020809104026020016040519081016040528093929190818152602001838380828437820191505050505050919291929050505061047c565b604051808273ffffffffffffffffffffffffffffffffffffffff1673ffffffffffffffffffffffffffffffffffffffff16815260200191505060405180910390f35b3480156101b957600080fd5b50610234600480360381019080803590602001908201803590602001908080601f0160208091040260200160405190810160405280939291908181526020018383808284378201915050505050509192919290803573ffffffffffffffffffffffffffffffffffffffff169060200190929190505050610510565b6040518082815260200191505060405180910390f35b34801561025657600080fd5b506102b1600480360381019080803590602001908201803590602001908080601f0160208091040260200160405190810160405280939291908181526020018383808284378201915050505050509192919290505050610699565b604051808273ffffffffffffffffffffffffffffffffffffffff1673ffffffffffffffffffffffffffffffffffffffff16815260200191505060405180910390f35b6000806000846040518082805190602001908083835b60208310151561032e5780518252602082019150602081019050602083039250610309565b6001836020036101000a038019825116818451168082178552505050505050905001915050908152602001604051809103902060009054906101000a900473ffffffffffffffffffffffffffffffffffffffff1673ffffffffffffffffffffffffffffffffffffffff161415156103c7577fffffffffffffffffffffffffffffffffffffffffffffffffffffffffffffffff9050610476565b816000846040518082805190602001908083835b60208310151561040057805182526020820191506020810190506020830392506103db565b6001836020036101000a038019825116818451168082178552505050505050905001915050908152602001604051809103902060006101000a81548173ffffffffffffffffffffffffffffffffffffffff021916908373ffffffffffffffffffffffffffffffffffffffff160217905550600090505b92915050565b600080826040518082805190602001908083835b6020831015156104b55780518252602082019150602081019050602083039250610490565b6001836020036101000a038019825116818451168082178552505050505050905001915050908152602001604051809103902060009054906101000a900473ffffffffffffffffffffffffffffffffffffffff169050919050565b6000806001846040518082805190602001908083835b60208310151561054b5780518252602082019150602081019050602083039250610526565b6001836020036101000a038019825116818451168082178552505050505050905001915050908152602001604051809103902060009054906101000a900473ffffffffffffffffffffffffffffffffffffffff1673ffffffffffffffffffffffffffffffffffffffff161415156105e4577fffffffffffffffffffffffffffffffffffffffffffffffffffffffffffffffff9050610693565b816001846040518082805190602001908083835b60208310151561061d57805182526020820191506020810190506020830392506105f8565b6001836020036101000a038019825116818451168082178552505050505050905001915050908152602001604051809103902060006101000a81548173ffffffffffffffffffffffffffffffffffffffff021916908373ffffffffffffffffffffffffffffffffffffffff160217905550600090505b92915050565b60006001826040518082805190602001908083835b6020831015156106d357805182526020820191506020810190506020830392506106ae565b6001836020036101000a038019825116818451168082178552505050505050905001915050908152602001604051809103902060009054906101000a900473ffffffffffffffffffffffffffffffffffffffff1690509190505600a165627a7a72305820d678b5b91fb1f01c708fde76ccfefc53ad7da20ed129a445285d092df2852cd30029",
  "source": "pragma solidity ^ 0.4.18;\r\n\r\ncontract RC{\r\n    //A mapping allocates the memory for a hash table. The keys of the hash table\r\n    //and the type of values in hash table entries are declared before and after\r\n    //the => expression.\r\n    mapping (string => address) EthAddr;\r\n    mapping (string => address) SCAddr;\r\n    //These are free hash memories!\r\n    \r\n    function registerEthAddr(string _RegistrarID,address _EthAddr)public returns(int){\r\n        if(EthAddr[_RegistrarID]!=0)\r\n            {\r\n                /*Registration is one time, ID shall not collide. */\r\n                return -1;\r\n            }\r\n        else{\r\n            EthAddr[_RegistrarID]=_EthAddr;\r\n            return 0;\r\n        }\r\n    }\r\n    \r\n    function registerSCAddr(string _RegistrarID,address _SCAddr)public returns(int){\r\n        if(SCAddr[_RegistrarID]!=0)\r\n            {\r\n                /*Registration is one time, ID shall not collide. */\r\n                return -1;\r\n            }\r\n        else{\r\n            SCAddr[_RegistrarID]=_SCAddr;\r\n            return 0;\r\n        }\r\n    }\r\n    \r\n    function getEthAddr(string _RegistrarID)view public returns(address){\r\n        return EthAddr[_RegistrarID];\r\n    }\r\n    \r\n    \r\n    function getSCAddr(string _RegistrarID)view public returns(address){\r\n        return SCAddr[_RegistrarID];\r\n    }\r\n}\r\n\r\n",
  "sourcePath": "C:\\Users\\tzhangam\\Desktop\\Demo\\contracts\\RC.sol",
  "compiler": {
    "name": "solc",
    "version": "0.4.23+commit.124ca40d.Emscripten.clang"
  },
  "schemaVersion": "2.0.0",
  "updatedAt": "2018-04-26T02:35:49.005Z"
}