{
  "contractName": "SC",
  "abi": [
    {
      "constant": true,
      "inputs": [],
      "name": "RegistrarID",
      "outputs": [
        {
          "name": "",
          "type": "string"
        }
      ],
      "payable": false,
      "stateMutability": "view",
      "type": "function"
    },
    {
      "constant": true,
      "inputs": [
        {
          "name": "",
          "type": "uint256"
        }
      ],
      "name": "PPRAddrs",
      "outputs": [
        {
          "name": "",
          "type": "address"
        }
      ],
      "payable": false,
      "stateMutability": "view",
      "type": "function"
    },
    {
      "constant": true,
      "inputs": [],
      "name": "RegistrarEthAddr",
      "outputs": [
        {
          "name": "",
          "type": "address"
        }
      ],
      "payable": false,
      "stateMutability": "view",
      "type": "function"
    },
    {
      "inputs": [
        {
          "name": "_RegistrarID",
          "type": "string"
        },
        {
          "name": "_RegistrarEthAddr",
          "type": "address"
        }
      ],
      "payable": false,
      "stateMutability": "nonpayable",
      "type": "constructor"
    },
    {
      "constant": true,
      "inputs": [
        {
          "name": "_PPR",
          "type": "address"
        }
      ],
      "name": "getStatus",
      "outputs": [
        {
          "name": "",
          "type": "int256"
        }
      ],
      "payable": false,
      "stateMutability": "view",
      "type": "function"
    },
    {
      "constant": false,
      "inputs": [
        {
          "name": "_PPR",
          "type": "address"
        },
        {
          "name": "_Status",
          "type": "int256"
        }
      ],
      "name": "updateStatus",
      "outputs": [
        {
          "name": "",
          "type": "int256"
        }
      ],
      "payable": false,
      "stateMutability": "nonpayable",
      "type": "function"
    },
    {
      "constant": false,
      "inputs": [
        {
          "name": "_PPR",
          "type": "address"
        }
      ],
      "name": "addPPR",
      "outputs": [
        {
          "name": "",
          "type": "int256"
        }
      ],
      "payable": false,
      "stateMutability": "nonpayable",
      "type": "function"
    },
    {
      "constant": false,
      "inputs": [
        {
          "name": "_PPR",
          "type": "address"
        }
      ],
      "name": "deletePPR",
      "outputs": [
        {
          "name": "",
          "type": "int256"
        }
      ],
      "payable": false,
      "stateMutability": "nonpayable",
      "type": "function"
    }
  ],
  "bytecode": "0x6060604052341561000f57600080fd5b60405161099f38038061099f83398101604052808051820191906020018051906020019091905050816000908051906020019061004d929190610096565b5080600160006101000a81548173ffffffffffffffffffffffffffffffffffffffff021916908373ffffffffffffffffffffffffffffffffffffffff160217905550505061013b565b828054600181600116156101000203166002900490600052602060002090601f016020900481019282601f106100d757805160ff1916838001178555610105565b82800160010185558215610105579182015b828111156101045782518255916020019190600101906100e9565b5b5090506101129190610116565b5090565b61013891905b8082111561013457600081600090555060010161011c565b5090565b90565b6108558061014a6000396000f300606060405260043610610083576000357c0100000000000000000000000000000000000000000000000000000000900463ffffffff1680631213bc491461008857806328138ad61461011657806329b875731461016c57806330ccebb5146101cf578063488585121461021c5780638778203114610269578063aef7ba73146102b6575b600080fd5b341561009357600080fd5b61009b61030b565b6040518080602001828103825283818151815260200191508051906020019080838360005b838110156100db5780820151818401526020810190506100c0565b50505050905090810190601f1680156101085780820380516001836020036101000a031916815260200191505b509250505060405180910390f35b341561012157600080fd5b610156600480803573ffffffffffffffffffffffffffffffffffffffff169060200190919080359060200190919050506103a9565b6040518082815260200191505060405180910390f35b341561017757600080fd5b61018d6004808035906020019091905050610469565b604051808273ffffffffffffffffffffffffffffffffffffffff1673ffffffffffffffffffffffffffffffffffffffff16815260200191505060405180910390f35b34156101da57600080fd5b610206600480803573ffffffffffffffffffffffffffffffffffffffff169060200190919050506104a8565b6040518082815260200191505060405180910390f35b341561022757600080fd5b610253600480803573ffffffffffffffffffffffffffffffffffffffff169060200190919050506104f1565b6040518082815260200191505060405180910390f35b341561027457600080fd5b6102a0600480803573ffffffffffffffffffffffffffffffffffffffff169060200190919050506105b1565b6040518082815260200191505060405180910390f35b34156102c157600080fd5b6102c96107b2565b604051808273ffffffffffffffffffffffffffffffffffffffff1673ffffffffffffffffffffffffffffffffffffffff16815260200191505060405180910390f35b60008054600181600116156101000203166002900480601f0160208091040260200160405190810160405280929190818152602001828054600181600116156101000203166002900480156103a15780601f10610376576101008083540402835291602001916103a1565b820191906000526020600020905b81548152906001019060200180831161038457829003601f168201915b505050505081565b600080600360008573ffffffffffffffffffffffffffffffffffffffff1673ffffffffffffffffffffffffffffffffffffffff16815260200190815260200160002054141561041a577fffffffffffffffffffffffffffffffffffffffffffffffffffffffffffffffff9050610463565b81600360008573ffffffffffffffffffffffffffffffffffffffff1673ffffffffffffffffffffffffffffffffffffffff16815260200190815260200160002081905550600090505b92915050565b60028181548110151561047857fe5b90600052602060002090016000915054906101000a900473ffffffffffffffffffffffffffffffffffffffff1681565b6000600360008373ffffffffffffffffffffffffffffffffffffffff1673ffffffffffffffffffffffffffffffffffffffff168152602001908152602001600020549050919050565b600080600360008473ffffffffffffffffffffffffffffffffffffffff1673ffffffffffffffffffffffffffffffffffffffff168152602001908152602001600020541415610562577fffffffffffffffffffffffffffffffffffffffffffffffffffffffffffffffff90506105ac565b6000600360008473ffffffffffffffffffffffffffffffffffffffff1673ffffffffffffffffffffffffffffffffffffffff16815260200190815260200160002081905550600090505b919050565b600080600090505b6002805490508110156106ff578273ffffffffffffffffffffffffffffffffffffffff166002828154811015156105ec57fe5b906000526020600020900160009054906101000a900473ffffffffffffffffffffffffffffffffffffffff1673ffffffffffffffffffffffffffffffffffffffff1614156106f2576000600360008573ffffffffffffffffffffffffffffffffffffffff1673ffffffffffffffffffffffffffffffffffffffff1681526020019081526020016000205414156106ca576001600360008573ffffffffffffffffffffffffffffffffffffffff1673ffffffffffffffffffffffffffffffffffffffff16815260200190815260200160002081905550600091506107ac565b7fffffffffffffffffffffffffffffffffffffffffffffffffffffffffffffffff91506107ac565b80806001019150506105b9565b6002805480600101828161071391906107d8565b9160005260206000209001600085909190916101000a81548173ffffffffffffffffffffffffffffffffffffffff021916908373ffffffffffffffffffffffffffffffffffffffff160217905550506001600360008573ffffffffffffffffffffffffffffffffffffffff1673ffffffffffffffffffffffffffffffffffffffff16815260200190815260200160002081905550600091505b50919050565b600160009054906101000a900473ffffffffffffffffffffffffffffffffffffffff1681565b8154818355818115116107ff578183600052602060002091820191016107fe9190610804565b5b505050565b61082691905b8082111561082257600081600090555060010161080a565b5090565b905600a165627a7a72305820d98f47266dab99e12364013bc10abff5693716b567269a6274ae970811a961810029",
  "source": "pragma solidity ^ 0.4.18;\r\n\r\n\r\ncontract SC{\r\n    /*It holds a list of references to Patient-\r\nProvider Relationship contracts (PPRs)*/    \r\n    string public RegistrarID;\r\n    address public RegistrarEthAddr;\r\n    \r\n    address[] public PPRAddrs;\r\n    \r\n    mapping (address => int) Status;\r\n    \r\n    /*Patients\r\ncan accept, reject or delete relationships*/\r\n\r\n    function SC(string _RegistrarID,address _RegistrarEthAddr)public{\r\n        RegistrarID=_RegistrarID;\r\n        RegistrarEthAddr=_RegistrarEthAddr;\r\n    }\r\n    \r\n    function getStatus(address _PPR)view public returns(int){\r\n        return Status[_PPR];\r\n    }\r\n    \r\n    //Update the status of a existing PPR.\r\n    function updateStatus(address _PPR,int _Status)public returns(int){\r\n        \r\n        if(Status[_PPR]==0)//The PPR is not in our list.\r\n            return -1;\r\n        else\r\n            Status[_PPR]=_Status;\r\n        return 0;\r\n    }\r\n    \r\n    function addPPR(address _PPR)public returns(int){\r\n        for(uint i=0;i<PPRAddrs.length;i++){\r\n            if(PPRAddrs[i]==_PPR)\r\n                {\r\n                    if(Status[_PPR]==0)\r\n                        {\r\n                            //Reuse the deleded slot.\r\n                            Status[_PPR]=1;\r\n                            return 0;\r\n                        }\r\n                    else{\r\n                        //The PPR already exists.\r\n                        return -1;\r\n                    }\r\n                }\r\n        }    \r\n        \r\n        //The PPR is total new to the list.\r\n        PPRAddrs.push(_PPR);\r\n        //Initialize the status.\r\n        Status[_PPR]=1;\r\n                            \r\n        return 0;\r\n    }\r\n    function deletePPR(address _PPR)public returns(int){\r\n        if(Status[_PPR]==0)//_PPR is not in the list.\r\n            return -1;\r\n        else\r\n            Status[_PPR]=0;//Mark the Status as deleted.\r\n        \r\n        return 0;    \r\n    }\r\n}\r\n\r\n",
  "sourcePath": "C:\\Users\\tzhangam\\Desktop\\Demo\\contracts\\SC.sol",
  "compiler": {
    "name": "solc",
    "version": "0.4.21+commit.dfe3193c.Emscripten.clang"
  },
  "schemaVersion": "2.0.0",
  "updatedAt": "2018-04-20T15:36:54.854Z"
}