{
  "contractName": "SC",
  "abi": [
    {
      "constant": true,
      "inputs": [],
      "name": "RegistrarID",
      "outputs": [
        {
          "name": "",
          "type": "string"
        }
      ],
      "payable": false,
      "stateMutability": "view",
      "type": "function"
    },
    {
      "constant": true,
      "inputs": [],
      "name": "RegistrarEthAddr",
      "outputs": [
        {
          "name": "",
          "type": "address"
        }
      ],
      "payable": false,
      "stateMutability": "view",
      "type": "function"
    },
    {
      "inputs": [
        {
          "name": "_RegistrarID",
          "type": "string"
        },
        {
          "name": "_RegistrarEthAddr",
          "type": "address"
        }
      ],
      "payable": false,
      "stateMutability": "nonpayable",
      "type": "constructor"
    },
    {
      "constant": true,
      "inputs": [
        {
          "name": "_ProviderID",
          "type": "string"
        }
      ],
      "name": "getPPRAddress",
      "outputs": [
        {
          "name": "",
          "type": "address"
        }
      ],
      "payable": false,
      "stateMutability": "view",
      "type": "function"
    },
    {
      "constant": true,
      "inputs": [
        {
          "name": "_PPR",
          "type": "address"
        }
      ],
      "name": "getStatus",
      "outputs": [
        {
          "name": "",
          "type": "int256"
        }
      ],
      "payable": false,
      "stateMutability": "view",
      "type": "function"
    },
    {
      "constant": false,
      "inputs": [
        {
          "name": "_PPR",
          "type": "address"
        },
        {
          "name": "_Status",
          "type": "int256"
        }
      ],
      "name": "updateStatus",
      "outputs": [
        {
          "name": "",
          "type": "int256"
        }
      ],
      "payable": false,
      "stateMutability": "nonpayable",
      "type": "function"
    },
    {
      "constant": false,
      "inputs": [
        {
          "name": "_ProviderID",
          "type": "string"
        },
        {
          "name": "_PPR",
          "type": "address"
        }
      ],
      "name": "addPPR",
      "outputs": [
        {
          "name": "",
          "type": "int256"
        }
      ],
      "payable": false,
      "stateMutability": "nonpayable",
      "type": "function"
    },
    {
      "constant": false,
      "inputs": [
        {
          "name": "_PPR",
          "type": "address"
        }
      ],
      "name": "deletePPR",
      "outputs": [
        {
          "name": "",
          "type": "int256"
        }
      ],
      "payable": false,
      "stateMutability": "nonpayable",
      "type": "function"
    }
  ],
  "bytecode": "0x608060405234801561001057600080fd5b506040516109d03803806109d08339810180604052810190808051820192919060200180519060200190929190505050816000908051906020019061005692919061009f565b5080600160006101000a81548173ffffffffffffffffffffffffffffffffffffffff021916908373ffffffffffffffffffffffffffffffffffffffff1602179055505050610144565b828054600181600116156101000203166002900490600052602060002090601f016020900481019282601f106100e057805160ff191683800117855561010e565b8280016001018555821561010e579182015b8281111561010d5782518255916020019190600101906100f2565b5b50905061011b919061011f565b5090565b61014191905b8082111561013d576000816000905550600101610125565b5090565b90565b61087d806101536000396000f300608060405260043610610083576000357c0100000000000000000000000000000000000000000000000000000000900463ffffffff1680631213bc491461008857806328138ad61461011857806330ccebb5146101795780634761806e146101d057806348858512146102795780638510bc75146102d0578063aef7ba731461036d575b600080fd5b34801561009457600080fd5b5061009d6103c4565b6040518080602001828103825283818151815260200191508051906020019080838360005b838110156100dd5780820151818401526020810190506100c2565b50505050905090810190601f16801561010a5780820380516001836020036101000a031916815260200191505b509250505060405180910390f35b34801561012457600080fd5b50610163600480360381019080803573ffffffffffffffffffffffffffffffffffffffff16906020019092919080359060200190929190505050610462565b6040518082815260200191505060405180910390f35b34801561018557600080fd5b506101ba600480360381019080803573ffffffffffffffffffffffffffffffffffffffff169060200190929190505050610522565b6040518082815260200191505060405180910390f35b3480156101dc57600080fd5b50610237600480360381019080803590602001908201803590602001908080601f016020809104026020016040519081016040528093929190818152602001838380828437820191505050505050919291929050505061056b565b604051808273ffffffffffffffffffffffffffffffffffffffff1673ffffffffffffffffffffffffffffffffffffffff16815260200191505060405180910390f35b34801561028557600080fd5b506102ba600480360381019080803573ffffffffffffffffffffffffffffffffffffffff169060200190929190505050610600565b6040518082815260200191505060405180910390f35b3480156102dc57600080fd5b50610357600480360381019080803590602001908201803590602001908080601f0160208091040260200160405190810160405280939291908181526020018383808284378201915050505050509192919290803573ffffffffffffffffffffffffffffffffffffffff1690602001909291905050506106c0565b6040518082815260200191505060405180910390f35b34801561037957600080fd5b5061038261082b565b604051808273ffffffffffffffffffffffffffffffffffffffff1673ffffffffffffffffffffffffffffffffffffffff16815260200191505060405180910390f35b60008054600181600116156101000203166002900480601f01602080910402602001604051908101604052809291908181526020018280546001816001161561010002031660029004801561045a5780601f1061042f5761010080835404028352916020019161045a565b820191906000526020600020905b81548152906001019060200180831161043d57829003601f168201915b505050505081565b600080600360008573ffffffffffffffffffffffffffffffffffffffff1673ffffffffffffffffffffffffffffffffffffffff1681526020019081526020016000205414156104d3577fffffffffffffffffffffffffffffffffffffffffffffffffffffffffffffffff905061051c565b81600360008573ffffffffffffffffffffffffffffffffffffffff1673ffffffffffffffffffffffffffffffffffffffff16815260200190815260200160002081905550600090505b92915050565b6000600360008373ffffffffffffffffffffffffffffffffffffffff1673ffffffffffffffffffffffffffffffffffffffff168152602001908152602001600020549050919050565b60006002826040518082805190602001908083835b6020831015156105a55780518252602082019150602081019050602083039250610580565b6001836020036101000a038019825116818451168082178552505050505050905001915050908152602001604051809103902060009054906101000a900473ffffffffffffffffffffffffffffffffffffffff169050919050565b600080600360008473ffffffffffffffffffffffffffffffffffffffff1673ffffffffffffffffffffffffffffffffffffffff168152602001908152602001600020541415610671577fffffffffffffffffffffffffffffffffffffffffffffffffffffffffffffffff90506106bb565b6000600360008473ffffffffffffffffffffffffffffffffffffffff1673ffffffffffffffffffffffffffffffffffffffff16815260200190815260200160002081905550600090505b919050565b600080600360008473ffffffffffffffffffffffffffffffffffffffff1673ffffffffffffffffffffffffffffffffffffffff168152602001908152602001600020541415610731577fffffffffffffffffffffffffffffffffffffffffffffffffffffffffffffffff9050610825565b816002846040518082805190602001908083835b60208310151561076a5780518252602082019150602081019050602083039250610745565b6001836020036101000a038019825116818451168082178552505050505050905001915050908152602001604051809103902060006101000a81548173ffffffffffffffffffffffffffffffffffffffff021916908373ffffffffffffffffffffffffffffffffffffffff1602179055506001600360008473ffffffffffffffffffffffffffffffffffffffff1673ffffffffffffffffffffffffffffffffffffffff16815260200190815260200160002081905550600090505b92915050565b600160009054906101000a900473ffffffffffffffffffffffffffffffffffffffff16815600a165627a7a72305820cf94e01d6a8c6e207bd2ef8d54bdcfced93c98cf4793acdce03208ce573216090029",
  "source": "pragma solidity ^ 0.4.18;\r\n\r\n\r\ncontract SC{\r\n    /*It holds a list of references to Patient-\r\nProvider Relationship contracts (PPRs)*/    \r\n    string public RegistrarID;\r\n    address public RegistrarEthAddr;\r\n    \r\n        \r\n    mapping (string=>address) PPRAddress; //From providerID to PPR address.\r\n    mapping (address => int) PPRStatus; //From PPR address to PPRStatus\r\n                                        //PPRStatus == 0 means it does not exists.\r\n                                        //PPRStatus == 1 means it exists.\r\n    \r\n    /*Patients\r\ncan accept, reject or delete relationships*/\r\n\r\n    constructor(string _RegistrarID,address _RegistrarEthAddr)public{\r\n        RegistrarID=_RegistrarID;\r\n        RegistrarEthAddr=_RegistrarEthAddr;\r\n    }\r\n    \r\n    function getPPRAddress(string _ProviderID) view public returns(address){\r\n        return PPRAddress[_ProviderID];\r\n    }\r\n    function getStatus(address _PPR)view public returns(int){\r\n        return PPRStatus[_PPR];\r\n    }\r\n    \r\n    //Update the status of a existing PPR.\r\n    function updateStatus(address _PPR,int _Status)public returns(int){\r\n        \r\n        if(PPRStatus[_PPR]==0)//The PPR is not in our list.\r\n            return -1;\r\n        else\r\n            PPRStatus[_PPR]=_Status;\r\n        return 0;\r\n    }\r\n    \r\n    function addPPR(string _ProviderID,address _PPR)public returns(int){\r\n        \r\n        if(PPRStatus[_PPR]==0)\r\n            return -1;//The PPR already exists.\r\n        \r\n        //If not, add the new PPR into mapping.\r\n        PPRAddress[_ProviderID]=_PPR;\r\n        //Initialize the status.\r\n        PPRStatus[_PPR]=1;\r\n                            \r\n        return 0;\r\n    }\r\n    function deletePPR(address _PPR)public returns(int){\r\n        if(PPRStatus[_PPR]==0)//_PPR is not in the list.\r\n            return -1;\r\n        else\r\n            PPRStatus[_PPR]=0;//Mark the Status as deleted.\r\n        \r\n        return 0;    \r\n    }\r\n}\r\n\r\n",
  "sourcePath": "C:\\Users\\tzhangam\\Desktop\\Demo\\contracts\\SC.sol",
  "compiler": {
    "name": "solc",
    "version": "0.4.23+commit.124ca40d.Emscripten.clang"
  },
  "schemaVersion": "2.0.0",
  "updatedAt": "2018-04-26T06:14:23.517Z"
}